{
  "contractName": "DocumentVerification",
  "abi": [
    {
      "inputs": [],
      "stateMutability": "nonpayable",
      "type": "constructor"
    },
    {
      "anonymous": false,
      "inputs": [
        {
          "indexed": false,
          "internalType": "string",
          "name": "docId",
          "type": "string"
        },
        {
          "indexed": false,
          "internalType": "string",
          "name": "name",
          "type": "string"
        },
        {
          "indexed": false,
          "internalType": "string",
          "name": "hash",
          "type": "string"
        }
      ],
      "name": "DocumentAdded",
      "type": "event"
    },
    {
      "anonymous": false,
      "inputs": [
        {
          "indexed": false,
          "internalType": "string",
          "name": "docId",
          "type": "string"
        }
      ],
      "name": "DocumentVerified",
      "type": "event"
    },
    {
      "inputs": [
        {
          "internalType": "string",
          "name": "",
          "type": "string"
        }
      ],
      "name": "documents",
      "outputs": [
        {
          "internalType": "string",
          "name": "hash",
          "type": "string"
        },
        {
          "internalType": "string",
          "name": "name",
          "type": "string"
        },
        {
          "internalType": "bool",
          "name": "isVerified",
          "type": "bool"
        }
      ],
      "stateMutability": "view",
      "type": "function",
      "constant": true
    },
    {
      "inputs": [],
      "name": "owner",
      "outputs": [
        {
          "internalType": "address",
          "name": "",
          "type": "address"
        }
      ],
      "stateMutability": "view",
      "type": "function",
      "constant": true
    },
    {
      "inputs": [
        {
          "internalType": "string",
          "name": "_docId",
          "type": "string"
        },
        {
          "internalType": "string",
          "name": "_name",
          "type": "string"
        },
        {
          "internalType": "string",
          "name": "_hash",
          "type": "string"
        }
      ],
      "name": "addDocument",
      "outputs": [],
      "stateMutability": "nonpayable",
      "type": "function"
    },
    {
      "inputs": [
        {
          "internalType": "string",
          "name": "_docId",
          "type": "string"
        }
      ],
      "name": "verifyDocument",
      "outputs": [],
      "stateMutability": "nonpayable",
      "type": "function"
    },
    {
      "inputs": [
        {
          "internalType": "string",
          "name": "_docId",
          "type": "string"
        }
      ],
      "name": "getDocument",
      "outputs": [
        {
          "internalType": "string",
          "name": "",
          "type": "string"
        },
        {
          "internalType": "string",
          "name": "",
          "type": "string"
        },
        {
          "internalType": "bool",
          "name": "",
          "type": "bool"
        }
      ],
      "stateMutability": "view",
      "type": "function",
      "constant": true
    }
  ],
  "bytecode": "0x608060405234801561000f575f80fd5b50335f806101000a81548173ffffffffffffffffffffffffffffffffffffffff021916908373ffffffffffffffffffffffffffffffffffffffff160217905550610fc78061005c5f395ff3fe608060405234801561000f575f80fd5b5060043610610055575f3560e01c806336a8915b146100595780637ccb6a64146100755780638da5cb5b146100a7578063b3dd697b146100c5578063beee5eb7146100f7575b5f80fd5b610073600480360381019061006e919061088d565b610113565b005b61008f600480360381019061008a9190610931565b6102d5565b60405161009e93929190610a0c565b60405180910390f35b6100af61045a565b6040516100bc9190610a8e565b60405180910390f35b6100df60048036038101906100da9190610931565b61047d565b6040516100ee93929190610a0c565b60405180910390f35b610111600480360381019061010c9190610931565b6105d3565b005b5f8054906101000a900473ffffffffffffffffffffffffffffffffffffffff1673ffffffffffffffffffffffffffffffffffffffff163373ffffffffffffffffffffffffffffffffffffffff16146101a0576040517f08c379a000000000000000000000000000000000000000000000000000000000815260040161019790610b17565b60405180910390fd5b5f6001846040516101b19190610b6f565b90815260200160405180910390205f0180546101cc90610bb2565b90501461020e576040517f08c379a000000000000000000000000000000000000000000000000000000000815260040161020590610c2c565b60405180910390fd5b60405180606001604052808281526020018381526020015f151581525060018460405161023b9190610b6f565b90815260200160405180910390205f820151815f01908161025c9190610df0565b5060208201518160010190816102729190610df0565b506040820151816002015f6101000a81548160ff0219169083151502179055509050507f36c3243db0146e4cc82c3cb6d524d1c25eab4b605f402ed995e76e17d5d22e798383836040516102c893929190610ebf565b60405180910390a1505050565b6060805f806001856040516102ea9190610b6f565b90815260200160405180910390206040518060600160405290815f8201805461031290610bb2565b80601f016020809104026020016040519081016040528092919081815260200182805461033e90610bb2565b80156103895780601f1061036057610100808354040283529160200191610389565b820191905f5260205f20905b81548152906001019060200180831161036c57829003601f168201915b505050505081526020016001820180546103a290610bb2565b80601f01602080910402602001604051908101604052809291908181526020018280546103ce90610bb2565b80156104195780601f106103f057610100808354040283529160200191610419565b820191905f5260205f20905b8154815290600101906020018083116103fc57829003601f168201915b50505050508152602001600282015f9054906101000a900460ff16151515158152505090508060200151815f01518260400151935093509350509193909250565b5f8054906101000a900473ffffffffffffffffffffffffffffffffffffffff1681565b6001818051602081018201805184825260208301602085012081835280955050505050505f91509050805f0180546104b490610bb2565b80601f01602080910402602001604051908101604052809291908181526020018280546104e090610bb2565b801561052b5780601f106105025761010080835404028352916020019161052b565b820191905f5260205f20905b81548152906001019060200180831161050e57829003601f168201915b50505050509080600101805461054090610bb2565b80601f016020809104026020016040519081016040528092919081815260200182805461056c90610bb2565b80156105b75780601f1061058e576101008083540402835291602001916105b7565b820191905f5260205f20905b81548152906001019060200180831161059a57829003601f168201915b505050505090806002015f9054906101000a900460ff16905083565b5f8054906101000a900473ffffffffffffffffffffffffffffffffffffffff1673ffffffffffffffffffffffffffffffffffffffff163373ffffffffffffffffffffffffffffffffffffffff1614610660576040517f08c379a000000000000000000000000000000000000000000000000000000000815260040161065790610b17565b60405180910390fd5b5f6001826040516106719190610b6f565b90815260200160405180910390205f01805461068c90610bb2565b9050036106ce576040517f08c379a00000000000000000000000000000000000000000000000000000000081526004016106c590610f53565b60405180910390fd5b600180826040516106df9190610b6f565b90815260200160405180910390206002015f6101000a81548160ff0219169083151502179055507fd8adb9411bc183a6acd302c7764624677a317e6328a46b4c73faef301bb2388d816040516107359190610f71565b60405180910390a150565b5f604051905090565b5f80fd5b5f80fd5b5f80fd5b5f80fd5b5f601f19601f8301169050919050565b7f4e487b71000000000000000000000000000000000000000000000000000000005f52604160045260245ffd5b61079f82610759565b810181811067ffffffffffffffff821117156107be576107bd610769565b5b80604052505050565b5f6107d0610740565b90506107dc8282610796565b919050565b5f67ffffffffffffffff8211156107fb576107fa610769565b5b61080482610759565b9050602081019050919050565b828183375f83830152505050565b5f61083161082c846107e1565b6107c7565b90508281526020810184848401111561084d5761084c610755565b5b610858848285610811565b509392505050565b5f82601f83011261087457610873610751565b5b813561088484826020860161081f565b91505092915050565b5f805f606084860312156108a4576108a3610749565b5b5f84013567ffffffffffffffff8111156108c1576108c061074d565b5b6108cd86828701610860565b935050602084013567ffffffffffffffff8111156108ee576108ed61074d565b5b6108fa86828701610860565b925050604084013567ffffffffffffffff81111561091b5761091a61074d565b5b61092786828701610860565b9150509250925092565b5f6020828403121561094657610945610749565b5b5f82013567ffffffffffffffff8111156109635761096261074d565b5b61096f84828501610860565b91505092915050565b5f81519050919050565b5f82825260208201905092915050565b5f5b838110156109af578082015181840152602081019050610994565b5f8484015250505050565b5f6109c482610978565b6109ce8185610982565b93506109de818560208601610992565b6109e781610759565b840191505092915050565b5f8115159050919050565b610a06816109f2565b82525050565b5f6060820190508181035f830152610a2481866109ba565b90508181036020830152610a3881856109ba565b9050610a4760408301846109fd565b949350505050565b5f73ffffffffffffffffffffffffffffffffffffffff82169050919050565b5f610a7882610a4f565b9050919050565b610a8881610a6e565b82525050565b5f602082019050610aa15f830184610a7f565b92915050565b7f4f6e6c792074686520636f6e7472616374206f776e65722063616e20706572665f8201527f6f726d207468697320616374696f6e2e00000000000000000000000000000000602082015250565b5f610b01603083610982565b9150610b0c82610aa7565b604082019050919050565b5f6020820190508181035f830152610b2e81610af5565b9050919050565b5f81905092915050565b5f610b4982610978565b610b538185610b35565b9350610b63818560208601610992565b80840191505092915050565b5f610b7a8284610b3f565b915081905092915050565b7f4e487b71000000000000000000000000000000000000000000000000000000005f52602260045260245ffd5b5f6002820490506001821680610bc957607f821691505b602082108103610bdc57610bdb610b85565b5b50919050565b7f446f63756d656e7420616c7265616479206578697374732e00000000000000005f82015250565b5f610c16601883610982565b9150610c2182610be2565b602082019050919050565b5f6020820190508181035f830152610c4381610c0a565b9050919050565b5f819050815f5260205f209050919050565b5f6020601f8301049050919050565b5f82821b905092915050565b5f60088302610ca67fffffffffffffffffffffffffffffffffffffffffffffffffffffffffffffffff82610c6b565b610cb08683610c6b565b95508019841693508086168417925050509392505050565b5f819050919050565b5f819050919050565b5f610cf4610cef610cea84610cc8565b610cd1565b610cc8565b9050919050565b5f819050919050565b610d0d83610cda565b610d21610d1982610cfb565b848454610c77565b825550505050565b5f90565b610d35610d29565b610d40818484610d04565b505050565b5b81811015610d6357610d585f82610d2d565b600181019050610d46565b5050565b601f821115610da857610d7981610c4a565b610d8284610c5c565b81016020851015610d91578190505b610da5610d9d85610c5c565b830182610d45565b50505b505050565b5f82821c905092915050565b5f610dc85f1984600802610dad565b1980831691505092915050565b5f610de08383610db9565b9150826002028217905092915050565b610df982610978565b67ffffffffffffffff811115610e1257610e11610769565b5b610e1c8254610bb2565b610e27828285610d67565b5f60209050601f831160018114610e58575f8415610e46578287015190505b610e508582610dd5565b865550610eb7565b601f198416610e6686610c4a565b5f5b82811015610e8d57848901518255600182019150602085019450602081019050610e68565b86831015610eaa5784890151610ea6601f891682610db9565b8355505b6001600288020188555050505b505050505050565b5f6060820190508181035f830152610ed781866109ba565b90508181036020830152610eeb81856109ba565b90508181036040830152610eff81846109ba565b9050949350505050565b7f446f63756d656e7420646f6573206e6f742065786973742e00000000000000005f82015250565b5f610f3d601883610982565b9150610f4882610f09565b602082019050919050565b5f6020820190508181035f830152610f6a81610f31565b9050919050565b5f6020820190508181035f830152610f8981846109ba565b90509291505056fea264697066735822122006249e83df89e4819f323245dda3e7454002a7d33246b2f21c86efc2eca3b47964736f6c63430008140033",
  "immutableReferences": {},
  "source": "// SPDX-License-Identifier: MIT\npragma solidity ^0.8.0;\n\ncontract DocumentVerification {\n    address public owner;\n\n    struct Document {\n        string hash;\n        string name;\n        bool isVerified;\n    }\n\n    mapping(string => Document) public documents;\n\n    event DocumentAdded(string docId, string name, string hash);\n    event DocumentVerified(string docId);\n\n    modifier onlyOwner() {\n        require(msg.sender == owner, \"Only the contract owner can perform this action.\");\n        _;\n    }\n\n    constructor() {\n        owner = msg.sender;\n    }\n\n    function addDocument(string memory _docId, string memory _name, string memory _hash) public onlyOwner {\n        require(bytes(documents[_docId].hash).length == 0, \"Document already exists.\");\n        documents[_docId] = Document(_hash, _name, false);\n        emit DocumentAdded(_docId, _name, _hash);\n    }\n\n    function verifyDocument(string memory _docId) public onlyOwner {\n        require(bytes(documents[_docId].hash).length != 0, \"Document does not exist.\");\n        documents[_docId].isVerified = true;\n        emit DocumentVerified(_docId);\n    }\n\n    function getDocument(string memory _docId) public view returns (string memory, string memory, bool) {\n        Document memory doc = documents[_docId];\n        return (doc.name, doc.hash, doc.isVerified);\n    }\n}\n",
  "sourcePath": "C:\\Users\\karthik\\blockchain-doc-verification\\blockchain\\contracts\\DocumentVerification.sol",
  "compiler": {
    "name": "solc",
    "version": "0.8.20+commit.a1b79de6.Emscripten.clang"
  },
  "schemaVersion": "3.4.16",
  "updatedAt": "2025-04-06T13:06:30.871Z",
  "networkType": "ethereum",
  "devdoc": {
    "kind": "dev",
    "methods": {},
    "version": 1
  },
  "userdoc": {
    "kind": "user",
    "methods": {},
    "version": 1
  }
}